:100000000C945D000C9485000C9485000C94850084
:100010000C9485000C9485000C9485000C9485004C
:100020000C9485000C9485000C9485000C9485003C
:100030000C9485000C9485000C9485000C9485002C
:100040000C9407030C9485000C94D5020C94AF0219
:100050000C9485000C9485000C9485000C9485000C
:100060000C9485000C94850000000008000201003B
:100070000003040700000000000000000000000072
:10008000250028002B0000000000240027002A0083
:10009000040404040404040402020202020203032E
:1000A0000303030301020408102040800102040836
:1000B0001020010204081020BB0311241FBECFEF43
:1000C000D8E0DEBFCDBF11E0A0E0B1E0E6EEF7E0A2
:1000D00002C005900D92AE35B107D9F722E0AEE52A
:1000E000B1E001C01D92A430B207E1F710E0CDE508
:1000F000D0E004C02197FE010E94EB03CC35D1076C
:10010000C9F70E9451030C94E8030C940000E1EB42
:10011000F0E02491EDE9F0E08491882399F090E0FB
:10012000880F991FFC01EA57FF4FA591B491FC017C
:10013000E458FF4F859194918FB7F894EC91E22B9E
:10014000EC938FBF0895E5E7F0E02491E1EBF0E058
:100150009491EDE9F0E0E491EE23C9F0222339F027
:10016000233001F1A8F4213019F1223029F1F0E017
:10017000EE0FFF1FE458FF4FA591B4912FB7F894ED
:10018000EC91811126C090959E239C932FBF0895DA
:100190002730A9F02830C9F0243049F72091800099
:1001A0002F7D03C0209180002F7720938000DFCF28
:1001B00024B52F7724BDDBCF24B52F7DFBCF209135
:1001C000B0002F772093B000D2CF2091B0002F7DC8
:1001D000F9CF9E2BDACFFC01538D448D252F30E0D3
:1001E000842F90E0821B930B541710F0CF96089544
:1001F00001970895FC01918D828D981761F0A28D71
:10020000AE0FBF2FB11D5D968C91928D9F5F9F7336
:10021000928F90E008958FEF9FEF0895FC01918DEC
:10022000828D981731F0828DE80FF11D858D90E059
:1002300008958FEF9FEF0895FC01918D228D892FF6
:1002400090E0805C9F4F821B91098F7399270895DE
:10025000FC01A48DA80FB92FB11DA35ABF4F2C913B
:10026000848D90E001968F739927848FA689B78932
:100270002C93A089B1898C91837080648C93938D29
:10028000848D981306C00288F389E02D80818F7DCC
:1002900080830895EF92FF920F931F93CF93DF9384
:1002A000EC0181E0888F9B8D8C8D98131AC0E889B2
:1002B000F989808185FF15C09FB7F894EE89FF8981
:1002C0006083E889F98980818370806480839FBF1F
:1002D00081E090E0DF91CF911F910F91FF90EF901F
:1002E0000895F62E0B8D10E00F5F1F4F0F7311272F
:1002F000E02E8C8D8E110CC00FB607FCFACFE8896A
:10030000F989808185FFF5CFCE010E942801F1CFC8
:10031000EB8DEC0FFD2FF11DE35AFF4FF0829FB7DD
:10032000F8940B8FEA89FB8980818062CFCFCF93CD
:10033000DF93EC01888D8823B9F0AA89BB89E8890D
:10034000F9898C9185FD03C0808186FD0DC00FB6B3
:1003500007FCF7CF8C9185FFF2CF808185FFEDCF31
:10036000CE010E942801E9CFDF91CF91089587E661
:1003700091E00E941C0121E0892B09F420E0822FEA
:10038000089580E090E0892B29F00E94B701811147
:100390000C9400000895AF92BF92CF92DF92EF923B
:1003A000FF920F931F93CF93DF936C017B018B011F
:1003B000040F151FEB015E01AE18BF08C017D1076F
:1003C00059F06991D601ED91FC910190F081E02DF9
:1003D000C6010995892B79F7C501DF91CF911F914E
:1003E0000F91FF90EF90DF90CF90BF90AF90089566
:1003F000789484B5826084BD84B5816084BD85B500
:10040000826085BD85B5816085BDEEE6F0E08081C6
:1004100081608083E1E8F0E01082808182608083E7
:10042000808181608083E0E8F0E08081816080836A
:10043000E1EBF0E0808184608083E0EBF0E080819C
:1004400081608083EAE7F0E080818460808380813E
:1004500082608083808181608083808180688083E6
:100460001092C10008953FB7F89480916301909174
:100470006401A0916501B091660126B5A89B05C0F5
:100480002F3F19F00196A11DB11D3FBFBA2FA92F13
:10049000982F8827BC01CD01620F711D811D911D10
:1004A00042E0660F771F881F991F4A95D1F708957C
:1004B0008F929F92AF92BF92CF92DF92EF92FF9274
:1004C0000E9433024B015C0188EEC82E83E0D82ED7
:1004D000E12CF12C0E943302681979098A099B09E1
:1004E000683E734081059105A8F321E0C21AD10846
:1004F000E108F10888EE880E83E0981EA11CB11C6B
:10050000C114D104E104F10429F7FF90EF90DF90CA
:10051000CF90BF90AF909F908F900895FC01019075
:100520000020E9F73197AF01481B590BE0916701B3
:10053000F09168010280F381E02DBC0187E691E033
:100540000994CF93DF930E948E02EC0182E191E047
:100550000E948E028C0F9D1FDF91CF9108951F92F4
:100560000F920FB60F9211242F933F934F935F93E7
:100570006F937F938F939F93AF93BF93EF93FF936B
:1005800087E691E00E942801FF91EF91BF91AF9122
:100590009F918F917F916F915F914F913F912F919B
:1005A0000F900FBE0F901F9018951F920F920FB6CD
:1005B0000F9211242F938F939F93EF93FF93E091CA
:1005C0007701F09178018081E0917D01F0917E01C9
:1005D00082FD1BC09081809180018F5F8F7320917D
:1005E0008101821741F0E0918001F0E0E959FE4F6E
:1005F000958F80938001FF91EF919F918F912F9123
:100600000F900FBE0F901F9018958081F4CF1F920E
:100610000F920FB60F9211242F933F938F939F93B6
:10062000AF93BF9380915F0190916001A0916101B0
:10063000B091620130915E0123E0230F2D3758F510
:100640000196A11DB11D20935E0180935F019093DF
:100650006001A0936101B093620180916301909168
:100660006401A0916501B09166010196A11DB11DC3
:100670008093630190936401A0936501B093660138
:10068000BF91AF919F918F913F912F910F900FBE8E
:100690000F901F90189526E8230F0296A11DB11DFB
:1006A000D2CF0E94F8010E948700E0917701F0917B
:1006B000780182E08083E0917301F09174011082EF
:1006C000E0917501F09176018FEC808310927F01AB
:1006D000E0917B01F0917C0186E08083E0917901DB
:1006E000F0917A01808180618083E0917901F091BD
:1006F0007A01808188608083E0917901F0917A01AC
:10070000808180688083E0917901F0917A01808115
:100710008F7D808385E191E00E94A10284E191E0D8
:100720000E94A10284E191E00E94A10284E191E093
:100730000E94A1028BE191E00E94A102C0E0D0E002
:1007400088E391E00E94A10281E00E94A3000E9440
:10075000580288E391E00E94A10280E00E94A30079
:100760000E945802209761F30E94B701882341F349
:100770000E940000E5CFE7E6F1E01382128288EEE6
:1007800093E0A0E0B0E084839583A683B78384E000
:1007900091E09183808385EC90E09587848784EC59
:1007A00090E09787868780EC90E0918B808B81EC3E
:1007B00090E0938B828B82EC90E0958B848B86EC1F
:1007C00090E0978B868B118E128E138E148E089567
:1007D000F8940C94F103EE0FFF1F0590F491E02DB7
:0607E0000994F894FFCF1C
:1007E600000000004A01CB01EB0097011C01FA0052
:1007F6000E010D0A002A2A2A2A2A0048656C6C6F07
:100806002066726F6D2041726475696E6F2046694D
:10081600726D7761726521004563686F2066726F3D
:100826006D207468652041726475696E6F20466933
:0E083600726D7761726520496D6167652E00F5
:00000001FF
